:020000022000DC
:1070000000000420197202000172020003720200E3
:1070100005720200077202000972020000000000FF
:107020000000000000000000000000000B720200E1
:107030000D720200000000000F72020011720200C7
:107040007541030013720200114F030055680300DD
:107050001372020013720200094E0300F95203007A
:107060001372020013720200137202001372020004
:1070700013720200137202001372020013720200F4
:1070800013720200299B03001372020013720200A4
:107090001372020013720200FDF203001372020069
:1070A00013720200137202001372020013720200C4
:1070B00013720200137202000000000000000000C2
:1070C00013720200137202001372020013720200A4
:1070D0001372020013720200137202001372020094
:1070E000137202001372020013720200000000000B
:1070F0000000000013720200000000001372020082
:10710000000000000000000000000000000000007F
:10711000000000000000000000000000000000006F
:10712000000000000000000000000000000000005F
:10713000000000000000000000000000000000004F
:10714000000000000000000000000000000000003F
:10715000000000000000000000000000000000002F
:10716000000000000000000000000000000000001F
:10717000000000000000000000000000000000000F
:1071800000000000000000000000000000000000FF
:1071900000000000000000000000000000000000EF
:1071A00000000000000000000000000000000000DF
:1071B00000000000000000000000000000000000CF
:1071C00000000000000000000000000000000000BF
:1071D00000000000000000000000000000000000AF
:1071E000000000000000000000000000000000009F
:1071F000000000000000000000000000000000008F
:10720000FEE7FEE7FEE7FEE7FEE7FEE7FEE7FEE756
:10721000FEE7FEE700F002B8FFF7FCBF0F484FF0B3
:107220000701884385460E4880470E48016841F4AF
:1072300070010160BFF34F8FBFF36F8F00F01AB87A
:1072400009480A490A4A884207D0521A05D00378E9
:1072500001300B700131013AF9D170470000042070
:1072600091A5020088ED00E0B4FD0300702200202B
:10727000842200203A493B480A1A02D0072291434F
:107280008D46394939480A1A06D00722914381F3BD
:107290000988022282F3148835483649364A00F0BC
:1072A00041F836483649374A00F03CF83648374905
:1072B000374A00F037F837483749384A00F032F893
:1072C00037483849384A00F02DF838483849394AA3
:1072D00000F028F838483949394A00F023F839488D
:1072E0003949002200F036F838483949002200F0C8
:1072F00031F838483849091A18F0EEFB374A9047F8
:1073000025482649884205D00268043003B49047D6
:1073100003BCF7E700208646EC4600200021304AF7
:107320009047FEE7884214D0521A12D003460B430E
:1073300013430324234206D1036804300B60043155
:10734000043AF9D17047037801300B700131013AEA
:10735000F9D17047884202D002700130FAE77047D5
:107360000000042000E003200000042000000420AE
:10737000DC3B0400842200205C240020E473020033
:10738000E473020028FC0300DC3B0400842200209C
:1073900084220020C8FD0300C8FD0300C8FD0300CF
:1073A000C8FD0300C8FD0300C8FD0300C8FD0300BD
:1073B000C8FD0300D93B0400B43D04005C24002058
:1073C0005C2400205C240020643700206437002007
:1073D00064370020643700206457002041720200A7
:0473E000DD87020043
:1073E40084B00346ADF80630BDF8063040F6B73237
:1073F400934203D964238DF80F3065E0BDF806305D
:1074040040F65432934212D9BDF80630C3F53B63BB
:1074140008333A2202FB03F32E4A82FB0312521171
:10742400DB179B1ADBB264338DF80F304CE0BDF8E8
:10743400063040F6B422934213D9BDF80630C3F5A2
:107444003562043213465B001344DB00224A82FB9C
:1074540003129211DB179B1ADBB22A338DF80F301B
:1074640032E0BDF8063040F6881293420FD9BDF8D9
:107474000630C3F52B630433164A82FB0312D21081
:10748400DB179B1ADBB212338DF80F301CE0BDF80A
:10749400063040F63402934213D9BDF80630C3F5E2
:1074A4001862083213465B0013445B000B4A82FBEC
:1074B4000312D211DB179B1ADBB206338DF80F309F
:1074C40002E000238DF80F309DF80F30184604B009
:1074D400704700BF1F85EB51676666666160606038
:1074E40076DF704700BF18467ADF704700BF184642
:1074F4007CDF704700BF18468FDF704700BF184617
:1075040033DF704700BF184600B585B00190019B7A
:10751400002B0AD0074B43F001030393019B9B010B
:107524000293039B0298984700E000BF05B05DF802
:1075340004FB00BF2001040000B583B0019000915A
:10754400019B002B01D1054B0193009901980DF08B
:10755400FDFF0346184603B05DF804FB1C0104005C
:1075640000B583B00190019B002B0AD04FF47A70D0
:10757400FFF7CAFF019B013B0193019B002BF5D14F
:1075840000E000BF03B05DF804FB000000B583B069
:1075940003460091ADF80630BDF80630009A19464E
:1075A400034811F043F900BF03B05DF804FB00BFCA
:1075B400EFBEADDE00B583B00190019809F0CEFDB9
:1075C400019809F02FFE019B1B780D2B03D100209D
:1075D40000F0C8FF00E000BF00BF03B05DF804FB8B
:1075E40000B585B001900EF043F90390039B02931C
:1075F400029B002B04D0044AD021029811F016F902
:1076040000BF05B05DF804FBD4FD030000B583B0F2
:10761400114B1B78DBB24FF6FE7219460F480BF084
:10762400BCFF0190019B002B12D0019B082B0FD0B3
:10763400019B132B0CD0019B112B09D0019B43F20E
:107644000142934204D0064ADD21019811F0EEF87C
:1076540000BF03B05DF804FBFC280020DC280020F8
:10766400D4FD030000B583B00190FFF7CFFF00BF46
:1076740003B05DF804FB000000B585B0214A22493F
:10768400224802F050FD0346002B2BD01F4BB3F9C8
:1076940000101E4BB3F902201C4BB3F904001C4B21
:1076A4001B88009303461B4802F08AFB0390039B4C
:1076B400002B22D0039B43F2020293421DD0039B72
:1076C400082B1AD0039B43F20142934215D0039B2B
:1076D4000293029B002B10D00F4AF821029811F05C
:1076E400A5F80AE00D4A0E4BD31ADB081B0443F03D
:1076F40003030C49184616F0CDFE00BF05B05DF833
:1077040004FB00BF042900200229002000290020D6
:10771400E8220020B0280020D4FD0300FCFC030074
:10772400C4FC030018FE030000B583B00190FFF70A
:10773400A3FF00BF03B05DF804FB000000B587B0F1
:1077440011F024FC0590059B0493049B002B05D0A9
:107754001E4A40F20B11049811F068F81C4A0121EA
:107764001C4811F051FC0590059B0393039B002BCF
:1077740005D0164A40F21111039811F057F8164A31
:107784000121164811F040FC0590059B0293029BD1
:10779400002B05D00D4A40F21711029811F046F85B
:1077A4000F4A01210F4811F02FFC0590059B01930E
:1077B400019B002B05D0054A40F21D11019811F0E0
:1077C40035F800BF07B05DF804FB00BFD4FD03002B
:1077D40069760200CCFD0300E5750200C8FD0300D4
:1077E4002D770200D0FD030000B587B09DF800306E
:1077F400012262F303038DF800309DF8003001226A
:1078040062F307138DF800306B460B221B491846B0
:10781400FFF76EFE0590059B0493049B002B05D097
:10782400174A40F22F11049811F000F801AB082216
:107834000021184618F0C6F95023ADF80430A023EF
:10784400ADF806300023ADF808304FF4C873ADF836
:107854000A3001AB1846FFF747FE0590059B0393DA
:10786400039B002B05D0064A40F23911039810F00F
:10787400DDFF00BF07B05DF804FB00BF34FE03006A
:10788400D4FD030000B583B00021094807F0AAF92C
:107894000190019B0093009B002B05D0054A4FF4F7
:1078A400A071009810F0C2FF00BF03B05DF804FBA4
:1078B4005C240020D4FD030000B583B00190054A88
:1078C40040F24B11019810F0B1FF00BF03B05DF816
:1078D40004FB00BFD4FD030000B587B06B46102243
:1078E4000021184618F06EF901238DF80D3001239C
:1078F4008DF80E3001238DF80F30002300930123FF
:107904008DF804300023029364238DF80C306B4609
:10791400194609480BF0F8FD0590059B0493049B58
:10792400002B05D0054A4FF4B171049810F07EFF86
:1079340000BF07B05DF804FBDC280020D4FD030081
:1079440000B585B001900B46ADF8023002238DF8E6
:107954000F3017E09DF80F30023B019A13441B7857
:10796400002B05D19DF80F30184601F033F904E0DF
:107974009DF80F30184601F013F99DF80F300133CC
:107984008DF80F30BDF802305A1C9DF80F309A4222
:10799400E0DA00BF00BF05B05DF804FB00B585B0B8
:1079A40001900091009B1B78062B00F28D8001A2B0
:1079B40052F823F03D7A0200557A02006D7A0200F3
:1079C400857A02009D7A0200B57A0200D579020018
:1079D400404A414BD31ADB081B0443F003033F49DD
:1079E400184616F057FD00238DF80F3017E0394A7A
:1079F400394BD31ADB081B0443F003009DF80F1026
:107A0400009B5A689DF80F3013441B780A4634498A
:107A140016F05FFD9DF80F3001338DF80F309DF89F
:107A24000F30012BE3D9009B5A68009B1B89194630
:107A34001046FFF785FF48E0264A274BD31ADB0898
:107A44001B0443F003032749184616F023FD3CE0CA
:107A5400204A214BD31ADB081B0443F003032249B9
:107A6400184616F017FD30E01A4A1B4BD31ADB08F0
:107A74001B0443F003031D49184616F00BFD24E0D4
:107A8400144A154BD31ADB081B0443F003031849AB
:107A9400184616F0FFFC18E00E4A0F4BD31ADB0809
:107AA4001B0443F003031349184616F0F3FC0CE0DF
:107AB400084A094BD31ADB081B0443F003030E499D
:107AC400184616F0E7FC00E000BF00BF05B05DF803
:107AD40004FB00BFFCFC0300C4FC030040FE0300E5
:107AE40064FE030080FE0300B0FE0300E0FE03001A
:107AF40010FF030040FF03006CFF030000B587B0D4
:107B04006B4600221A605A609A60DA600B4B00934D
:107B14006B4619460A4801F0DDFF0590059B049366
:107B2400049B002B05D0074A4FF4DA71049810F037
:107B34007DFE00BF07B05DF804FB00BFA179020021
:107B4400B0280020D4FD030000B585B000230193C4
:107B54000B4B019301AB19460A4807F027F9039030
:107B6400039B0293029B002B05D0074A40F2BF11EE
:107B7400029810F05BFE00BF05B05DF804FB00BF87
:107B8400BD78020070240020D4FD030008B5FFF77F
:107B9400DBFFFFF7B3FFFFF79FFE00BF08BD000048
:107BA40000B585B00190019B1B78002B11D10B4BC4
:107BB4001B883B211846FFF793FC0390039B029319
:107BC400029B002B05D0064A40F2D911029810F00E
:107BD4002DFE00BF05B05DF804FB00BFE8220020C5
:107BE400D4FD030000B583B00190054A4FF4F17150
:107BF400019810F01BFE00BF03B05DF804FB00BF4A
:107C0400D4FD030000B58BB001AB1C220021184643
:107C140017F0D8FF002301934FF4A03302934FF4DD
:107C2400F023039303238DF810300023ADF81230B2
:107C340000238DF814300C4B06930C4B079301ABC7
:107C4400184604F05DF90990099B0893089B002BE2
:107C540005D0074A40F2F711089810F0E7FD00BF7D
:107C64000BB05DF804FB00BFA57B0200E97B0200BA
:107C7400D4FD030000B585B01E4B00224FF47021E3
:107C8400184611F0FBF90390039B0293029B002B0F
:107C940005D0194A4FF40071029810F0C7FD174B34
:107CA400002240F6CD41184611F0E8F90390039BF9
:107CB4000193019B002B05D00F4A40F20321019848
:107CC40010F0B4FD0E4B002240F6CD41184611F0E1
:107CD400D5F90390039B0093009B002B05D0064A23
:107CE40040F20621009810F0A1FD00BF05B05DF838
:107CF40004FB00BFA8220020D4FD0300882200203A
:107D0400C822002000B585B0002001F041FC03909A
:107D1400039B0293029B002B05D0134A40F21121CE
:107D2400029810F083FD01F0BCFD0390039B0193C6
:107D3400019B002B05D00C4A40F21521019810F04C
:107D440075FDFFF7DDFB0390039B0093009B002B65
:107D540005D0054A40F21921009810F067FD00BFD4
:107D640005B05DF804FB00BFD4FD030000B585B089
:107D740003468DF807309DF80730002B1CD0032BE9
:107D84001DD1124A124BD31ADB081B0443F0030320
:107D94001049184616F07EFB022001F0F9FB03900F
:107DA400039B0293029B002B0BD00B4A40F2292128
:107DB400029810F03BFD04E0FFF7A4FF02E000BFCF
:107DC40000E000BF00BF05B05DF804FBFCFC03004D
:107DD400C4FC030098FF0300D4FD030000B58BB07E
:107DE4000190009100230993019B1B88562B7AD0A4
:107DF400562B00F38B803B2B62D03B2B00F3868009
:107E0400212B43D0212B00F38180102B0DD0112B7B
:107E14007CD1454A454BD31ADB081B0443F00303CA
:107E24004349184616F036FB79E03F4A3F4BD31AD4
:107E3400DB081B0443F003033E49184616F02AFBF3
:107E4400072001F0A5FB0990099B0593059B002BD6
:107E540005D0394A40F24621059810F0E7FC019B11
:107E64009A88364B1A80354B1B881946344806F0DD
:107E7400BFFF0990099B0493049B002B48D02E4A12
:107E840040F24921049810F0D1FC41E000238DF820
:107E94000C3000238DF80D30019B9B8803AA1146FA
:107EA4001846FFF729FB0990099B0693069B002BB4
:107EB40030D0214A4FF41571069810F0B7FC29E030
:107EC400019B9B8813211846FFF70AFB0990099B25
:107ED4000893089B002B1FD0174A4FF4177108987A
:107EE40010F0A4FC18E0019B9B8813211846FFF7AF
:107EF400F7FA0990099B0793079B002B0ED00E4AB3
:107F04004FF41971079810F091FC07E000BF06E0E8
:107F140000BF04E000BF02E000BF00E000BF00BFFC
:107F24000BB05DF804FB00BFFCFC0300C4FC0300C1
:107F3400ACFF0300BCFF0300D4FD0300E8220020D3
:107F44007024002000B587B017F0F6F80590059B63
:107F54000493049B002B05D0164A40F27521049823
:107F640010F064FC0023019301AB1946012017F0C3
:107F7400F9F90590059B0393039B002B05D00D4A4B
:107F840040F27B21039810F051FC01AB184617F026
:107F9400DDFA0590059B0293029B002B05D0054A50
:107FA40040F27F21029810F041FC00BF07B05DF859
:107FB40004FB00BFD4FD030000B587B008F0B2FC99
:107FC4000590059B0493049B002B05D0384A4FF47D
:107FD4002371049810F02AFC6B46052200211846F0
:107FE40017F0F0FD9DF8003043F001038DF80030E8
:107FF4009DF800306FF341038DF800309DF8003098
:108004006FF382038DF800309DF800306FF3C303E3
:108014008DF800309DF80030032262F306138DF8CA
:1080240000309DF800306FF3C7138DF8003007233C
:108034008DF8013010238DF802309DF8033043F0A1
:1080440001038DF803309DF8033043F002038DF8EB
:1080540003309DF8043043F001038DF804309DF89B
:10806400043043F002038DF804306B46184608F0E0
:1080740043FD0590059B0393039B002B05D00C4AFD
:1080840040F29F21039810F0D1FB0A4808F00CFD40
:108094000590059B0293029B002B05D0044A40F2F5
:1080A400A221029810F0C2FB00BF07B05DF804FBE8
:1080B400D4FD0300B975020000B583B00E4A0F4B1E
:1080C400D31ADB081B0443F003030D49184616F0CA
:1080D400E1F908F087FD0190019B0093009B002BC0
:1080E40005D0084A40F2AD21009810F09FFB00BF74
:1080F40003B05DF804FB00BFFCFC0300C4FC0300F8
:10810400C8FF0300D4FD030000B5AFB04FF48053A3
:10811400ADF800301E4B93F828308DF8023001ABD7
:10812400AC220021184617F04DFD02238DF80430CF
:1081340001238DF8063006238DF807300123ADF8AE
:1081440014306B46069301238DF880304FF49673F8
:10815400239344F2506324930E4B2A9301AB1946A4
:108164000D4803F067FB2D902D9B2C932C9B002B2B
:1081740005D00A4A4FF432712C9810F057FB0121B4
:10818400054803F04AFB00BF2FB05DF804FB00BFB5
:10819400B0280020717D02007C240020D4FD03005F
:1081A40000B585B01D4B1B78DBB28DF804301B4B3A
:1081B4005B78DBB28DF80530184B9B78DBB28DF819
:1081C4000630164BDB78DBB28DF80730144B1A8877
:1081D40001AB1946134801F0CBFD0390039B002B20
:1081E40017D0039B43F20202934212D0039B082B45
:1081F4000FD0039B43F2014293420AD0039B0293A4
:10820400029B002B05D0084A40F2DA21029810F0B4
:108214000DFB00BF05B05DF804FB00BF082900207A
:10822400E8220020B0280020D4FD030084B00346D7
:108234008DF807300F4B029300238DF80F3011E0B7
:108244009DF80F3010336B4413F8083C9DF8072059
:108254009A4202D19DF80F3008E09DF80F300133A7
:108264008DF80F309DF80F30032BE9D9184604B070
:10827400704700BF0B0C181900B583B003460A46BB
:108284008DF8073013468DF806309DF807300B3B08
:108294000E2B00F2B68001A252F823F0DD82020018
:1082A4001D83020007840200078402000784020081
:1082B4000784020007840200078402000784020086
:1082C4000784020007840200078402000784020076
:1082D4005D8302009D8302009DF80630012B0BD1C3
:1082E4004A4A4B4BD31ADB081B0443F003034949A6
:1082F400184616F0CFF86FE09DF80630002B6BD1CE
:10830400424A434BD31ADB081B0443F0030342499C
:10831400184616F0BFF85FE09DF80630012B0BD12C
:108324003A4A3B4BD31ADB081B0443F003033B4993
:10833400184616F0AFF851E09DF80630002B4DD1E9
:10834400324A334BD31ADB081B0443F0030334498A
:10835400184616F09FF841E09DF80630012B0BD12A
:108364002A4A2B4BD31ADB081B0443F003032D4981
:10837400184616F08FF833E09DF80630002B2FD105
:10838400224A234BD31ADB081B0443F00303264978
:10839400184616F07FF823E09DF80630012B0BD128
:1083A4001A4A1B4BD31ADB081B0443F003031F496F
:1083B400184616F06FF815E09DF80630002B11D121
:1083C400124A134BD31ADB081B0443F00303184966
:1083D400184616F05FF805E000BF04E000BF02E0B5
:1083E40000BF00E000BF9DF807301846FFF71EFFEE
:1083F400034619460F4A9DF806305354FFF7D0FE42
:1084040000E000BF03B05DF804FB00BFFCFC030008
:10841400C4FC0300D8FF0300ECFF030004000400C5
:108424001800040030000400440004005C00040050
:10843400700004000829002000B589B001900021D3
:10844400012001F0BFF80790079B0693069B002BC1
:1084540005D0224A4FF44C71069810F0E7F9322205
:1084640004211F4810F0E2F80790079B0593059B31
:10847400002B05D0194A40F23531059810F0D6F991
:1084840010F05CF90790079B0493049B002B05D024
:10849400124A4FF44E71049810F0C8F90DF10B0311
:1084A4001946002001F060FA0790079B0393039B91
:1084B400002B05D0094A40F23B31039810F0B6F97D
:1084C4009DF80B30022B0CBF01230023DAB2019B71
:1084D4001A7000BF09B05DF804FB00BFD4FD0300AF
:1084E400FC00040000B583B04FF48041002015F077
:1084F400FBFC0190019B0093009B002B05D0064AD6
:108504004FF45171009810F091F915F083FC00BFFD
:1085140003B05DF804FB00BFD4FD030000B583B0D5
:1085240015F02AF90190019B0093009B002B05D0C4
:10853400044A40F24E31009810F078F900BF03B0BD
:108544005DF804FBD4FD030008B516F02DF80346CE
:1085540083F00103DBB2002B01D015F023F900BF37
:1085640008BD000000B585B003468DF807309DF8BE
:108574000730002B02D0FFF79FFD0FE003210948CD
:1085840003F034FA0390039B0293029B002B05D063
:10859400054A4FF45971029810F048F900BF05B02C
:1085A4005DF804FB7C240020D4FD030000B585B0F5
:1085B4001A4B1B889BB2DBB28DF80430174B1B8817
:1085C4009BB21B0A9BB2DBB28DF80530144B1A88A0
:1085D40001AB1946134801F0A3FB0390039B002B46
:1085E40017D0039B43F20202934212D0039B082B41
:1085F4000FD0039B43F2014293420AD0039B0293A0
:10860400029B002B05D0084A40F27231029810F008
:108614000DF900BF05B05DF804FB00BFFE28002083
:10862400E8220020B0280020D4FD030010B586B055
:108634000190019B1B78002B53D100230293019BD3
:108644005B68022118460DF06FF80490049B0393B5
:10865400039B002B05D0244A40F27E31039810F08E
:10866400E5F800238DF8173023E0019B5A689DF844
:1086740017305B001344B3F90030184617F080F943
:108684004FF00002194B17F0D1F802460B469DF843
:1086940017401046194617F061F903469AB2630071
:1086A40018336B4423F8102C9DF8173001338DF8E0
:1086B40017309DF81730012BD7D9BDF8083018466C
:1086C400FEF78EFE03461A46094B1A70BDF80A20BF
:1086D400084B1A80FFF76AFF074B1B680133064AF1
:1086E400136000BF06B010BDD4FD03000020EC3FB2
:1086F400FC280020FE280020F828002000B58DB0BA
:108704002F4A03AB07CA03C31A702E4A6B4607CA23
:1087140003C31A702C490020FEF70EFF0B900B9B2D
:108724000A930A9B002B05D0284A40F2A2310A98EA
:1087340010F07CF803AB194600200CF077FF0B9087
:108744000B9B0993099B002B05D0204A40F2A531CD
:10875400099810F06BF86B46194601200CF066FF7F
:108764000B900B9B0893089B002B05D0174A4FF4E2
:108774006A71089810F05AF8022115480CF0D4FFD9
:108784000B900B9B0793079B002B05D00F4A40F2DD
:10879400AB31079810F04AF802210E480CF0C4FFE0
:1087A4000B900B9B0693069B002B05D0074A40F2C7
:1087B400AE31069810F03AF800BF0DB05DF804FB36
:1087C400880004009400040031860200D4FD0300F4
:1087D400F0280020F428002000B583B0FFF782FEC3
:1087E400FEF7ACFF0DF107031846FFF725FEFFF770
:1087F40095FEFFF7A7FBFEF7F7FFFFF743F8FFF738
:10880400C5F9FFF781FCFFF7FDF9FFF7D5FB01F090
:108814008DFB4FF47A70FEF7A3FE0EE01C4A1D4B4D
:10882400D31ADB081B0443F003031B49184615F055
:1088340031FE4FF47A70FEF793FE01F03AFC0346E2
:1088440083F00103DBB2002BE8D1114A114BD31A98
:10885400DB081B0443F003031049184615F01AFE05
:10886400FFF74CFF0A4A0B4BD31ADB081B0443F0F7
:1088740003030B49184615F00DFEFFF7FBF99DF8AD
:1088840007301846FFF76EFEFFF75EFEFCE700BFF9
:10889400FCFC0300C4FC0300A0000400C0000400AE
:1088A400E000040000B583B00190019B1B681846EA
:1088B40000F01FF90346002B04D10B494FF4F67066
:1088C400FEF764FE019B1B681F2B02D84FF0A043E8
:1088D40006E0019B1B6803F01F02019B1A60034B17
:1088E400184603B05DF804FB28010400000300509F
:1088F40000B585B00190084611461A4603468DF826
:1089040003300B468DF8023013468DF8013001AB6D
:108914001846FFF7C7FF03909DF803209DF8023027
:108924005B001A439DF801309B001A439DF81830F0
:108934001B0242EA03019DF81C301B04019A1943EF
:10894400039B02F5E07243F8221000BF05B05DF806
:1089540004FB00B585B0039000230193002300932A
:108964000023012201210398FFF7C2FF00BF05B0D5
:108974005DF804FB00B585B003900B468DF80B3011
:108984009DF80B3000220192002200920022002167
:108994000398FFF7ADFF00BF05B05DF804FB00B519
:1089A40085B0019001AB1846FFF77CFF0390019B53
:1089B400012202FA03F31946039800F086F800BF77
:1089C40005B05DF804FB00B585B0019001AB184615
:1089D400FFF768FF0390019B012202FA03F3194693
:1089E400039800F07CF800BF05B05DF804FB00B507
:1089F40085B0019001AB1846FFF754FF0390039B29
:108A0400D3F804350293029BDA43019B012101FA56
:108A140003F31A40039BC3F80825019B01229A40E3
:108A2400029B1A40039BC3F80C2500BF05B05DF8F8
:108A340004FB00B583B001900091009B002B03D18F
:108A44000198FFF7C0FF02E00198FFF7A8FF00BFFD
:108A540003B05DF804FB00B585B0019001AB184686
:108A6400FFF720FF0390039800F01FF80246019BD4
:108A740022FA03F303F00103184605B05DF804FB82
:108A840000B585B0019001AB1846FFF70BFF0390CA
:108A9400039800F012F80246019B22FA03F303F054
:108AA4000103184605B05DF804FB82B00190019BF8
:108AB400D3F81035184602B0704782B00190019B7C
:108AC400D3F80435184602B0704782B00190009183
:108AD400019B009AC3F8082500BF02B0704782B01A
:108AE40001900091019B009AC3F80C2500BF02B0CD
:108AF400704784B00190019B5B09029300230393A8
:108B0400029B002B03D0029B012B04D007E04FF003
:108B1400FF33039303E04FF6FF73039300BF019BFE
:108B240003F01F030193039A019B22FA03F303F05A
:108B34000103002B14BF01230023DBB2184604B049
:108B44007047000000B585B00190019B032B03D949
:108B540011493A20FEF71AFD104A019B13441B7871
:108B64001846FFF78DFF0346002B14BF0123002393
:108B74008DF80F309DF80F30002B14BF0123002314
:108B8400DBB283F00103DBB203F00103DBB218466E
:108B940005B05DF804FB00BF580104009001040017
:108BA40000B583B00190019B032B03D907494120F1
:108BB400FEF7ECFC064A019B13441B78002118467F
:108BC400FFF737FF00BF03B05DF804FB5801040052
:108BD4009001040000B583B00190019B032B03D9DD
:108BE40007494720FEF7D2FC064A019B13441B7831
:108BF40001211846FFF71DFF00BF03B05DF804FB19
:108C0400580104009001040000B583B000230193CF
:108C140005E00198FFF7DEFF019B01330193019BFF
:108C2400032BF6D900BF00BF03B05DF804FB00B509
:108C340083B00023019305E00198FFF7B1FF019B86
:108C440001330193019B032BF6D900BF00BF03B08E
:108C54005DF804FB00B583B00190019B032B03D99D
:108C640007495F20FEF792FC064A019B13441B78D8
:108C74001846FFF7BCFE00BF03B05DF804FB00BF5D
:108C8400580104009001040000B583B0002301934F
:108C940009E0094A019B13441B781846FFF759FE63
:108CA400019B01330193019B032BF2D9FFF7ACFF26
:108CB40000BF03B05DF804FB9001040000B585B06B
:108CC4000190019B032B03D91149AC20FEF75EFCF4
:108CD400104A019B13441B781846FFF7BCFE034659
:108CE400002B14BF012300238DF80F309DF80F30A3
:108CF400002B14BF01230023DBB283F00103DBB29A
:108D040003F00103DBB2184605B05DF804FB00BFB5
:108D1400580104009401040000B583B000230193BA
:108D24000AE0094A019B13441B7803211846FFF704
:108D340021FE019B01330193019B032BF1D900BF59
:108D440000BF03B05DF804FB9401040084B00190FB
:108D54004FF0FF330293002303930DE00A4A039B71
:108D640013441B781A46019B934202D1039B02933E
:108D740005E0039B01330393039B032BEED9029B72
:108D8400184604B0704700BF9401040000B583B0D6
:108D94000190019B032B03D90549CB20FEF7F6FB79
:108DA400044A019B13441B78184603B05DF804FB86
:108DB400580104009401040000B583B00190019BA4
:108DC40003F00103002B01D0FFF75EFF019B03F0CA
:108DD4000203002B01D0FFF79FFF00BF03B05DF833
:108DE40004FB000000B583B00190019B1B6818468A
:108DF40000F04BF80346002B04D10B494FF4F670F6
:108E0400FEF7C4FB019B1B681F2B02D84FF0A04345
:108E140006E0019B1B6803F01F02019B1A60034BD1
:108E2400184603B05DF804FB9801040000030050E9
:108E340000B585B001900B468DF8033001AB1846A0
:108E4400FFF7D0FF0390019A039B02F5E07253F8F9
:108E54002230019A23F44031039B02F5E07243F877
:108E64002210019A039B02F5E07253F822109DF838
:108E740003301B04019A1943039B02F5E07243F883
:108E8400221000BF05B05DF804FB84B00190019B83
:108E94005B09029300230393029B002B03D0029BE4
:108EA400012B04D007E04FF0FF33039303E04FF6A8
:108EB400FF73039300BF019B03F01F030193039A05
:108EC400019B22FA03F303F00103002B14BF0123D7
:108ED4000023DBB2184604B0704700B583B001909C
:108EE400019B032B04D80198FFF7E8FE034600E03A
:108EF4000023184603B05DF804FB000000B587B0FA
:108F040003460A468DF8073013468DF806300023D1
:108F14008DF81730002304939DF807301846FFF7A7
:108F240015FF0490049B032B62D89DF80630022B96
:108F340052D0022B5CDC002B31D0012B58D13549A7
:108F4400049A13465B0013440B441B788DF81730C6
:108F54003049049A13465B0013440B4401331B78D5
:108F6400002B0ED02C4B2D4A4FF48041184610F0A4
:108F740085F80390039B002B03D1284A9DF8073002
:108F840013702449049A13465B0013440B440233C0
:108F94001978234A049B13440A461A7028E01E4B8E
:108FA400184610F0C3F81E4A049B13441978194854
:108FB400049A13465B001344034402331B7899421A
:108FC40015D11449049A13465B0013440B4402332D
:108FD4001B788DF817300AE00E49049A13465B009B
:108FE40013440B4401331B788DF8173000E000BFA5
:108FF4009DF81730002B09D00A4B1B68002B05D0B5
:10900400084B1B689DF817201046984700BF07B00F
:109014005DF804FB1C2900203023002028290020AF
:109024002C2900201829002000B583B00190019B51
:109034001B7802211846FFF761FF00BF03B05DF8FB
:1090440004FB000000B583B00C4B1B78002B0FD041
:109054000023019308E0019B022B02D00198FFF743
:10906400B9FD019B01330193019B032BF3D901E06B
:10907400FFF7CAFD00BF03B05DF804FB142900200C
:109084002DE9D04F92B003468DF83F300023119361
:1090940000231093CC4B1B78002B04D0CA4A002326
:1090A4001370FFF7CFFF9DF83F30172B00F23F827C
:1090B40001A252F823F000BF1D9102003591020075
:1090C40035910200D19102006D920200E9920200F2
:1090D4007D9302009D930200AD930200D993020098
:1090E400F7930200159402003394020041940200A5
:1090F4004194020041940200419402004194020010
:10910400D5940200E3940200F79402000B95020048
:109114002595020025950200FFF794FFAB4B1846F6
:1091240010F004F81190AA4A9DF83F301370FFE143
:109134000020FFF707FD0346002B0DD00020FFF7AA
:1091440049FD9DF83F30022B02D14FF4E16301E069
:109154004FF47A6310930BE00020FFF721FD9DF894
:109164003F30022B01D1C82301E04FF4C8731093A0
:10917400974A9DF83F301370944C109B0022009343
:1091840001924FF000024FF00003DDE90067394619
:10919400CB03314643EA51433146CA0312F57A718F
:1091A400029143F1000303934FF4FA624FF000037A
:1091B400DDE9020116F0F6FB02460B4613460022D7
:1091C400194620460FF05AFF1190B1E10020FFF735
:1091D400B9FC0346002B0DD00020FFF7FBFC9DF8E3
:1091E4003F30032B02D14FF4487301E04FF47A630C
:1091F40010930BE00020FFF7D3FC9DF83F30032BC6
:1092040001D1C82301E04FF4C8731093704A9DF84C
:109214003F3013706D4C109B0022049305924FF065
:1092240000024FF00003DDE904673946CB03314601
:1092340043EA51433146CA0312F57A71069143F168
:10924400000307934FF4FA624FF00003DDE90601CF
:1092540016F0A8FB02460B46134600221946204688
:109264000FF00CFF119063E10020FFF76BFC034645
:10927400002B06D00020FFF7ADFC4FF47A63109367
:1092840005E00020FFF78CFC4FF4C8731093504A9C
:109294009DF83F3013704D4C109B00229A46934624
:1092A4004FF000024FF000034FEACB3343EA5A4336
:1092B4004FEACA3212F57A71089143F10003099317
:1092C4004FF4FA624FF00003DDE9080116F06AFB7F
:1092D40002460B4613460022194620460FF0CEFEE6
:1092E400119025E10020FFF72DFC0346002B0CD044
:1092F4000020FFF76FFC9DF83F30052B01D1C823F8
:1093040001E04FF47A6310930BE00020FFF748FC70
:109314009DF83F30052B01D1C82301E04FF4C873F9
:1093240010932B4A9DF83F301370284C109B002259
:10933400984691464FF000024FF000034FEAC933BC
:1093440043EA58434FEAC83212F57A710A9143F15D
:1093540000030B934FF4FA624FF00003DDE90A01B6
:1093640016F020FB02460B461346002219462046FF
:109374000FF084FE1190DBE00020FFF76BFC144A31
:109384009DF83F301370114B002240F2666118467D
:109394000FF074FE1190CBE00020FFF701FC0C4AA3
:1093A4009DF83F301370C3E0074B01221A7001206F
:1093B400FFF750FC054B002240F2666118460FF09F
:1093C4005DFE1190B4E000BF0D290020F0220020C2
:1093D4000C290020594B01221A700120FFF73AFC96
:1093E400574B00224FF4005118460FF047FE1190DE
:1093F4009EE0524B01221A700120FFF72BFC504BC8
:10940400002240F2666118460FF038FE11908FE09A
:109414004A4B01221A700120FFF71CFC484B002222
:109424004FF4005118460FF029FE119080E0FFF729
:10943400FEFB444A9DF83F30137079E0424B1846D6
:109444000FF074FE11909DF83F30C3F11103109397
:10945400109B002B35D0119B002B32D1109B012B7C
:1094640028D9394C109B9BB21A46C82302FB03F33C
:10947400DA171E4617464FF000024FF00003FB03B5
:1094840043EA5643F20312F57A710C9143F1000357
:109494000D934FF4FA624FF00003DDE90C0116F06E
:1094A40081FA02460B4613460022194620460FF065
:1094B400E5FD11900220FFF773FB244B01221A7083
:1094C40036E00220FFF786FB204B00221A702FE0C3
:1094D400FFF7B8FD1B4A9DF83F30137028E0FFF7F3
:1094E400B1FD0020FFF75CFB164A9DF83F30137076
:1094F4001EE0FFF7A7FD0120FFF752FB114A9DF87C
:109504003F30137014E0FFF79DFD0020FFF748FB88
:109514000120FFF745FB0B4A9DF83F30137007E02D
:10952400FFF785FB074A9DF83F30137000E000BF4A
:10953400119B184612B0BDE8D08F00BF0D29002042
:10954400F02200200C2900201023002014290020E0
:1095540000B583B00190074B1B6803F00103002B97
:1095640004D0054B1B781846FFF78AFD00BF03B0F3
:109574005DF804FB102900200C29002000B583B0FD
:1095840001900220FFF766FB00BF03B05DF804FB07
:1095940000B585B003468DF8073000230393084BCC
:1095A4001B6803F00103002B05D09DF80730184613
:1095B400FFF766FD0390039B184605B05DF804FBB6
:1095C4001029002000B585B0019000910023039379
:1095D4002A4A019B13602A4A009B1360019B03F0F3
:1095E4000203002B2AD00023029308E00122012168
:1095F400029800F055F80390029B01330293029BFA
:10960400032B02D8039B002BF0D0039B002B06D125
:1096140040F2333204211B480FF008F80390039BF7
:10962400002B02D10FF08AF80390039B002B05D185
:10963400154A002115480FF0E7FC0390019B03F045
:109644000103002B14D00120FFF7B6FB039B002B72
:1096540005D10F4A00210F480FF0D6FC0390039B5D
:10966400002B05D10C4A01210C480FF0CDFC0390CE
:10967400039B184605B05DF804FB00BF10290020C9
:1096840018290020D40104002D900200D001040008
:1096940055950200C801040081950200CC01040024
:1096A40084B001900B468DF8033013468DF80230D8
:1096B40000230393019B032B3CD89DF80230012B1C
:1096C4000BD19DF80330012B04D1019BDBB20E3387
:1096D400DBB200E000238DF802309DF80330022B4A
:1096E4000FD0022B23DC002B16D0012B1FD11449E1
:1096F400019A13465B0013440B449DF802201A7030
:109704001AE00F49019A13465B0013440B440133DA
:109714009DF802201A700FE00949019A13465B0074
:1097240013440B4402339DF802201A7004E007230B
:10973400039301E007230393039B184604B0704787
:109744001C29002000B585B001900B468DF803302C
:10975400019B032B14D89DF80330002B01D0032365
:1097640000E000238DF80F300198FFF70FFB02464D
:109774009DF80F3019461046FFF75AFB002300E00E
:109784000623184605B05DF804FB00B583B00190CC
:1097940001210198FFF7D6FF0346184603B05DF890
:1097A40004FB00B583B0012200210020FFF778FFFD
:1097B4000190019B002B04D0019B072B01D0019B3E
:1097C4001CE0072202210120FFF76AFF0190019BA0
:1097D400002B04D0019B072B01D0019B0EE0042237
:1097E40002210020FFF75CFF0190019B002B04D0B5
:1097F400019B072B01D0019B00E00023184603B016
:109804005DF804FB00B583B0012202210020FFF7BC
:1098140047FF0190019B002B04D0019B072B01D033
:10982400019B1CE0072202210120FFF739FF019070
:10983400019B002B04D0019B072B01D0019B0EE060
:109844000A2200210020FFF72BFF0190019B002B2F
:1098540004D0019B072B01D0019B00E00023184694
:1098640003B05DF804FB00B583B001900120FFF75D
:1098740034FB0346002B03D0019B02221A700CE038
:109884000020FFF72AFB0346002B03D0019B0B2289
:109894001A7002E0019B00221A7000BF03B05DF849
:1098A40004FB00B583B00020FFF76FFF0190019B1C
:1098B400002B04D0019B062B01D0019B0CE001205E
:1098C400FFF763FF0190019B002B04D0019B062B43
:1098D40001D0019B00E00023184603B05DF804FBAF
:1098E40000B585B001900091019B1B88102B02D01C
:1098F400112B18D02FE01A4B1B68002B0DD1FFF74A
:1099040050FF0390039B002B07D0164B1B68002BC2
:1099140003D0144B1B6803989847114B1B68013301
:109924000F4A136017E00E4B1B68013B0C4A13608F
:109934000B4B1B68002B0DD1FFF764FF0390039BB7
:10994400002B07D0074B1B68002B03D0054B1B686B
:109954000398984700BF00BF05B05DF804FB00BF43
:10996400342900203029002000B585B001900091F1
:10997400002303930A4A019B1360009B002B02D02F
:109984000098FFF770FF074B1B68002B02D1FFF70D
:1099940039FF0390039B184605B05DF804FB00BF34
:1099A4003029002034290020A8DF704700BF184662
:1099B400AEDF704700BF184662DF704700BF18462D
:1099C40000B587B001900091009B06330593059B79
:1099D4001A88019BDB899A4210D1059B0C330393AF
:1099E400059B5B89ADF8103006238DF80830019B88
:1099F4001B6802AA11460198984752E0059B1A88F1
:109A0400019B5B899A4215D1059B0C33184602F0E1
:109A140055FF0346002B03D000238DF8083002E0E5
:109A240001238DF80830019B1B6802AA1146019896
:109A3400984736E0059B1A88019B5B8B9A4215D1A7
:109A4400059B0C33184602F039FF0346002B03D064
:109A540002238DF8083002E003238DF80830019BBF
:109A64001B6802AA1146019898471AE0059B1A88B8
:109A7400019B5B8C9A4214D1059B0C33184602F06F
:109A84001DFF0346002B03D004238DF8083002E0A9
:109A940005238DF80830019B1B6802AA1146019822
:109AA400984700BF07B05DF804FB00B585B001908E
:109AB4000091009B0393019B1B88502B04D10199B7
:109AC4000398FFF77DFF00E000BF00BF05B05DF81D
:109AD40004FB000010B596B001900091009B1A6839
:109AE400019B1A60019B4FF6FF72DA848B4B08AC22
:109AF4000FCB84E80F00019B03F1280208AB114649
:109B04001846FFF759FF1590159B002B01D0159BA4
:109B140001E1019B93F828308DF852304FF48053C3
:109B2400ADF85030019B1A1D14AB19460120FFF704
:109B34003BFF1590159B002B01D0159BEBE00023F8
:109B440006930023ADF81C300CAB202200211846EC
:109B540016F038F841F20403ADF83030019B93F865
:109B640028308DF832300623ADF836300623ADF8B0
:109B7400343006AB0E939DF83D3043F002038DF86C
:109B84003D309DF83D3043F010038DF83D30012306
:109B94008DF8413001238DF84330019B9888019B57
:109BA40003F11E020CAB194602F046FF1590159BFB
:109BB400002B01D0159BAEE0002305930CAB2022B3
:109BC4000021184615F0FEFF41F20103ADF83030D4
:109BD400019B93F828308DF832300423ADF83630E9
:109BE4000423ADF8343005AB0E939DF83D3043F0BB
:109BF40002038DF83D309DF83D3043F010038DF89D
:109C04003D3001238DF8413001238DF84330019B11
:109C14009888019B9A1D0CAB194602F00DFF159014
:109C2400159B002B01D0159B75E0002304930CAB0E
:109C340020220021184615F0C5FF41F20203ADF8B9
:109C44003030019B93F828308DF832300423ADF87E
:109C540036300423ADF8343004AB0E939DF83D3018
:109C640043F002038DF83D309DF83D3043F010037E
:109C74008DF83D3001238DF8413001238DF84330B8
:109C8400019B9888019B03F116020CAB194602F064
:109C9400D3FE1590159B002B01D0159B3BE00023B0
:109CA400ADF80C300CAB20220021184615F08AFFC9
:109CB40041F20303ADF83030019B93F828308DF85E
:109CC40032300223ADF836300223ADF8343003AB22
:109CD4000E939DF83D3043F002038DF83D309DF81E
:109CE4003D3043F008038DF83D3001238DF84130B9
:109CF40001238DF84230019B9888019B03F10E02E9
:109D04000CAB194602F098FE1590159B002B01D060
:109D1400159B00E00023184616B010BDF4010400A2
:109D240000B58BB0039002911346ADF806300423BE
:109D3400ADF8163006AB10220021184615F042FF8C
:109D440001238DF81A30039BDB8AADF81830029B8F
:109D540009930DF11603089306AABDF806301146BF
:109D64001846FFF725FE034618460BB05DF804FBC2
:109D740000B58BB0039002911346ADF8063004236E
:109D8400ADF8163006AB10220021184615F01AFF64
:109D940001238DF81A30039BDB88ADF81830029B41
:109DA40009930DF11603089306AABDF8063011466F
:109DB4001846FFF7FDFD034618460BB05DF804FB9B
:109DC40000B58DB00390084611461A460346ADF817
:109DD4000A300B46ADF808301346ADF806300023C0
:109DE4000A930023ADF82C30BDF80630DBB28DF8B1
:109DF4002830BDF906301B121BB2DBB28DF82930B6
:109E0400BDF80830DBB28DF82A30BDF908301B12DA
:109E14001BB2DBB28DF82B30BDF80A30DBB28DF803
:109E24002C30BDF90A301B121BB2DBB28DF82D3079
:109E34000623ADF8163006AB10220021184615F0A3
:109E4400C1FE01238DF81A30039BDB8BADF818306B
:109E54000023ADF81C300AAB09930DF116030893E7
:109E640006AABDF8383011461846FFF7A1FD03468F
:109E740018460DB05DF804FB00B583B00190019B5A
:109E8400043318460CF092F800BF03B05DF804FBED
:109E940000B589B0059003921A460B468DF813302D
:109EA40013468DF8123000230793059B181D9DF867
:109EB40012209DF813109DF8283000931346039A3E
:109EC4000CF02AFB0790079B184609B05DF804FBC9
:109ED40000B587B0039001921A460B468DF80B30FB
:109EE40013468DF80A3000230593039B181D9DF833
:109EF4000A309DF80B10019A0CF036FB0590059B77
:109F0400184607B05DF804FB82B001900091019BF4
:109F14001B78002B03D1044B01221A7000E000BF10
:109F240000BF02B0704700BF3829002000B587B0D9
:109F34006B4600221A605A609A60DA601C23009310
:109F44001D2301934FF0CD63029302238DF80C304F
:109F5400694600230A4A0B4809F094FE0590059BC4
:109F64000493049B002B04D0074A3C2104980EF070
:109F74005DFC0448FFF780FF00BF07B05DF804FBF9
:109F84000D9F0200040204001402040000B587B00F
:109F940003460A468DF80F3013468DF80E309DF8AF
:109FA4000F308DF810309DF80E308DF811300F4BB6
:109FB40000221A7004AA00230093022368210C488B
:109FC400FFF766FF059000BF084B1B78DBB283F0F8
:109FD4000103DBB2002BF7D1059B002B01D000233A
:109FE40000E00123184607B05DF804FB382900207F
:109FF4000402040000B587B0034602918DF80F30C7
:10A0040013468DF80E301C4B00221A700DF10F020E
:10A0140001230093012368211848FFF739FF0590B5
:10A0240000BF154B1B78DBB283F00103DBB2002BBE
:10A03400F7D1059B002B01D0002319E00E4B002221
:10A044001A709DF80E30029A68210C48FFF740FF01
:10A05400059000BF084B1B78DBB283F00103DBB231
:10A06400002BF7D1059B002B01D0002300E0012336
:10A07400184607B05DF804FB3829002004020400E8
:10A0840000B583B00DF10703012219467520FFF7CF
:10A09400B1FF0346002B07D09DF80730682B01D091
:10A0A400002302E0012300E00023184603B05DF81A
:10A0B40004FB00B583B001238DF80730FFF7E0FF00
:10A0C40003461A469DF807301340002B14BF0123A2
:10A0D40000238DF80730FFF7D3FF034683F0010315
:10A0E400DBB2002B01D0002319E000216B20FFF725
:10A0F4004DFF07211920FFF749FF06211A20FFF71A
:10A1040045FF00213820FFF741FF18211B20FFF7EE
:10A114003DFF00211C20FFF739FF9DF8073018464A
:10A1240003B05DF804FB00B587B00390029101927F
:10A1340000238DF8173004AB062219464320FFF79D
:10A1440059FF0346002B41D09DF810301B021AB270
:10A154009DF811301BB213431AB2039B1A80039B60
:10A16400B3F90030002B04DA039BB3F90020039BFE
:10A174001A809DF812301B021AB29DF813301BB2DC
:10A1840013431AB2029B1A80029BB3F90030002BCE
:10A1940004DA029BB3F90020029B1A809DF8143064
:10A1A4001B021AB29DF815301BB213431AB2019B5D
:10A1B4001A80019BB3F90030002B04DA019BB3F938
:10A1C4000020019B1A8001238DF817309DF8173069
:10A1D400184607B05DF804FBBFF34F8F00BF064B72
:10A1E400DB6803F4E0620449044B1343CB60BFF320
:10A1F4004F8F00BF00BFFDE700ED00E00400FA054B
:10A2040082B0164B1B680193154B1B680093019B8E
:10A21400082B1FD1009B052B1AD801A252F823F05A
:10A224003DA2020041A2020045A2020049A202008E
:10A234004DA2020051A2020001230CE001230AE016
:10A24400012308E0012306E0012304E0012302E0E6
:10A25400012300E00023184602B0704730010010CB
:10A264003401001082B0164B1B680193154B1B6818
:10A274000093019B082B1FD1009B052B1AD801A228
:10A2840052F823F0A1A20200A5A20200A9A2020092
:10A29400ADA20200B1A20200B5A2020001230CE0AB
:10A2A40001230AE0012308E0012306E0012304E07E
:10A2B400012302E0012300E00023184602B07047A6
:10A2C400300100103401001082B0164B1B6801935A
:10A2D400154B1B680093019B082B1FD1009B052B7A
:10A2E4001AD801A252F823F005A3020009A3020020
:10A2F4000DA3020011A3020015A3020019A302007A
:10A3040001230CE000230AE0002308E0002306E018
:10A31400002304E0002302E0002300E000231846A9
:10A3240002B07047300100103401001082B0164BA7
:10A334001B680193154B1B680093019B082B1FD1CD
:10A34400009B052B1AD801A252F823F069A302003E
:10A354006DA3020071A3020075A3020079A3020099
:10A364007DA3020001230CE000230AE0002308E09F
:10A37400002306E0002304E0002302E0002300E0C1
:10A384000023184602B07047300100103401001059
:10A3940082B0164B1B680193154B1B680093019BFD
:10A3A400082B1FD1009B052B1AD801A252F823F0C9
:10A3B400CDA30200D1A30200D5A30200D9A30200B9
:10A3C400DDA30200E1A3020001230CE000230AE064
:10A3D400002308E0002306E0002304E0002302E059
:10A3E400002300E00023184602B07047300100103B
:10A3F4003401001082B0164B1B680193154B1B6887
:10A404000093019B082B1FD1009B052B1AD801A296
:10A4140052F823F031A4020035A4020039A402004A
:10A424003DA4020041A4020045A4020001230CE063
:10A4340000230AE0002308E0002306E0002304E0F0
:10A44400002302E0002300E00023184602B0704716
:10A45400300100103401001082B0164B1B680193C8
:10A46400154B1B680093019B082B1FD1009B052BE8
:10A474001AD801A252F823F095A4020099A402006C
:10A484009DA40200A1A40200A5A40200A9A40200A4
:10A4940001230CE001230AE0012308E0012306E084
:10A4A400012304E0012302E0012300E00023184615
:10A4B40002B07047300100103401001082B0164B16
:10A4C4001B680193154B1B680093019B082B1FD13C
:10A4D400009B052B1AD801A252F823F0F9A402001C
:10A4E400FDA4020001A5020005A5020009A50200C1
:10A4F4000DA5020000230CE000230AE0002308E07D
:10A50400002306E0012304E0012302E0012300E02C
:10A514000023184602B070473001001034010010C7
:10A5240008B5FFF7CBFF0346002B07D04FF01023ED
:10A534004FF08042D3F80832C2F8583500BF08BD46
:10A5440000BF044BD3F80034002BFAD000BF00BF87
:10A55400704700BF00E0014000B583B00190054A98
:10A56400019BC2F80435FFF7EBFF00BF03B05DF8B1
:10A5740004FB00BF00E00140024B034A1A6000BF25
:10A58400704700BF502300200090D00308B5FFF7A8
:10A5940037FE0346002B0ED04FF080430022C3F851
:10A5A4000C214FF080430022C3F810214FF0804368
:10A5B4000022C3F83825FFF755FE0346002B76D05A
:10A5C4004FF08053734AD3F80434C2F820354FF067
:10A5D4008053704AD3F80834C2F824354FF08053BE
:10A5E4006C4AD3F80C34C2F828354FF08053694ACA
:10A5F400D3F81034C2F82C354FF08053654AD3F8A1
:10A604001434C2F830354FF08053624AD3F818340A
:10A61400C2F834354FF080535E4AD3F81C34C2F884
:10A6240040354FF080535B4AD3F82034C2F84435A8
:10A634004FF08053574AD3F82434C2F848354FF0CA
:10A644008053544AD3F82834C2F84C354FF0805321
:10A65400504AD3F82C34C2F850354FF080534D4A49
:10A66400D3F83034C2F854354FF08053494AD3F804
:10A674003434C2F860354FF08053464AD3F8383446
:10A68400C2F864354FF08053424AD3F83C34C2F8E0
:10A6940068354FF080533F4AD3F84034C2F86C35E4
:10A6A4004FF080533B4AD3F84434C2F87035FFF777
:10A6B4000BFE0346002B02D0374B384A1A60FFF7D3
:10A6C40035FE0346002B03D0354BFB22C3F8182577
:10A6D400FFF75EFE0346002B0AD0324B1B6823F0C3
:10A6E4000F02314B1B6803F00F032E4913430B6019
:10A6F400FFF780FE0346002B03D02C4B4FF400726F
:10A704001A60FFF7A9FE0346002B0DD04FF08043DB
:10A71400D3F8003403F00103002B05D04FF080433D
:10A724006FF00102C3F80024214BD3F88830204A8B
:10A7340043F47003C2F88830BFF34F8F00BFBFF3F8
:10A744006F8F00BFFFF7ECFE4FF01023D3F80032F9
:10A75400002B05DB4FF01023D3F80432002B15DA5D
:10A764000120FFF7F9FE4FF010231222C3F8002254
:10A77400FFF7E6FE4FF010231222C3F80422FFF77E
:10A78400DFFE0020FFF7E8FEFFF726FDFFF7F4FEEB
:10A7940000BF08BD00C000408C5600404881030043
:10A7A40000F00040E40E00405802001040960240C1
:10A7B40000ED00E06DDF704700BF184679DF704799
:10A7C40000BF18467DDF704700BF184664DF70473E
:10A7D40000BF184682B003460091ADF80630BDF8BC
:10A7E4000630DAB2009B1A70BDF806301B0A9AB222
:10A7F400009B0133D2B21A700223184602B070478C
:10A8040000B589B0039002911346ADF80630029B5F
:10A814001B8803F10902BDF806309A4201D90C23C2
:10A8240053E004AB1846FFF7C5FF0790079B069358
:10A83400069B002B01D0069B47E0029B1B881A460F
:10A84400039B134408221A70029B1B8801339AB29B
:10A85400029B1A80029B1B881A46039B13441B22EB
:10A864001A70029B1B8801339AB2029B1A80029BC6
:10A874001B881A46039B981804AB01330622194619
:10A8840015F06EF9029B1B8806339AB2029B1A805C
:10A894009DF8103023F00103DBB2002B07D1029B9B
:10A8A4001B881A46039B134400221A7006E0029B7D
:10A8B4001B881A46039B134401221A70029B1B88AF
:10A8C40001339AB2029B1A800023184609B05DF83E
:10A8D40004FB00B589B0039002910192ADF80230F7
:10A8E400039B1B78012B05D1039B5B78002B01D1C3
:10A8F400072391E0019B1B889A1CBDF802309A4201
:10A904000ED8039B1B78012B0CD1019B1B881A4684
:10A91400039B5B7813449A1CBDF802309A4201D918
:10A924000C2379E0019B1B88BDF80220D31A9BB24B
:10A93400023BADF81C30BDF81C30ADF81230019B61
:10A944001B880233029A13440DF112021146184671
:10A95400FFF738FF0690069B0593059B002B01D05B
:10A96400059B59E0039B1B78022B06D0039B5B7865
:10A974001A46BDF812309A4209D3BDF81230BDF818
:10A984001C209A4203D309238DF81F3016E00823B4
:10A994008DF81F30039B1B78012B0BD1039B5B7835
:10A9A4001A46BDF81C30934204D3039B5B78ADF880
:10A9B400123003E0BDF81C30ADF81230BDF812308F
:10A9C400FE2B01D90C2327E0BDF81230DAB2019B2B
:10A9D4001B881946029B0B440132D2B21A70019BA8
:10A9E4001B8801339AB2019B1A80019B1B881A466B
:10A9F400029B13449DF81F201A70019B1B8801338E
:10AA04009AB2019B1A80019B1A88BDF81230134434
:10AA14009AB2019B1A800023184609B05DF804FB22
:10AA240000B589B0039002911346ADF80630029B3D
:10AA34001B881A1DBDF806309A4201D90C233AE04E
:10AA44000DF116031846FFF7B9FE0790079B06930E
:10AA5400069B002B01D0069B2DE0029B1B881A4607
:10AA6400039B134403221A70029B1B8801339AB27E
:10AA7400029B1A80029B1B881A46039B13441922CB
:10AA84001A70029B1B8801339AB2029B1A80BDF88C
:10AA94001620029B1B881946039B0B44194610463B
:10AAA400FFF798FE03461A46029B1B8813449AB28A
:10AAB400029B1A800023184609B05DF804FB84B099
:10AAC400029101921A4603468DF80F301346ADF8F1
:10AAD4000C30019B1B88DA1CBDF80C309A4201D95A
:10AAE4000C2328E0019B1B881A46029B1344022274
:10AAF4001A70019B1B8801339AB2019B1A80019B37
:10AB04001B881A46029B134401221A70019B1B885E
:10AB140001339AB2019B1A80019B1B881A46029B3F
:10AB240013449DF80F201A70019B1B8801339AB2BD
:10AB3400019B1A800023184604B0704784B0029128
:10AB440001921A4603468DF80F301346ADF80C30C7
:10AB5400019B1B88DA1CBDF80C309A4201D90C23E6
:10AB640028E0019B1B881A46029B134402221A7098
:10AB7400019B1B8801339AB2019B1A80019B1B889D
:10AB84001A46029B13440A221A70019B1B88013344
:10AB94009AB2019B1A80019B1B881A46029B13449C
:10ABA4009DF80F201A70019B1B8801339AB2019BF8
:10ABB4001A800023184604B0704700B58FB0039084
:10ABC40001930B468DF80B3013468DF80A300023A1
:10ABD4008DF83330109B1B88ADF8303000230D9373
:10ABE40070E0039B5A680D9B9B001A4405AB1068E8
:10ABF40018600DF11B0105AB00221846FFF7E6FDB6
:10AC04000A900A9B0993099B002B01D0099B7BE0C6
:10AC14009DF81B309DF80A209A4250D19DF833309C
:10AC2400002B01D0002300E002238DF82330109B79
:10AC34001B881A469DF81B301A449DF823301A4489
:10AC4400BDF844309A4201DD0C235DE09DF83330B9
:10AC540083F00103DBB2002B16D0109B1B88013359
:10AC64009AB2109B1A80109B1B881A46019B1344AE
:10AC74009DF80B201A70109B1B8801339AB2109B0D
:10AC84001A8001238DF83330109B1B881A46019BD0
:10AC94001A440DF11B0105AB1846FFF797FD0A9006
:10ACA4000A9B0793079B002B01D0079B2CE0109B6A
:10ACB4001B889DF81B2013449AB2109B1A800D9B8D
:10ACC40001330D93039B1B881A460D9B934288DB2B
:10ACD4009DF83330002B16D0109B1A88BDF8303005
:10ACE400D31A9BB2013BADF82E30BDF82E30FF2BAA
:10ACF40001D90C2308E0BDF83030019A1344BDF8A3
:10AD04002E20D2B21A70002318460FB05DF804FB4F
:10AD140000B58BB0059003930B468DF813301346A2
:10AD24008DF812309DF81310BDF8343001930C9B4C
:10AD34000093039B02220598FFF73FFF0990099BAC
:10AD44000893089B002B01D0089B14E09DF8121077
:10AD5400BDF8343001930C9B0093039B102205989B
:10AD6400FFF72BFF0990099B0793079B002B01D04A
:10AD7400079B00E0002318460BB05DF804FB82B08B
:10AD84000190019B1B88052B0AD9019B1B88B3F5F5
:10AD9400486F07D9019B1B884FF6FF72934201D07D
:10ADA400072325E0019B5B88052B0AD9019B5B885F
:10ADB400B3F5486F07D9019B5B884FF6FF72934246
:10ADC40001D0072314E0019B1B884FF6FF729342C6
:10ADD4000DD0019B5B884FF6FF72934207D0019B15
:10ADE4001A88019B5B889A4201D9072300E000235B
:10ADF400184602B0704700B587B0039002910192E3
:10AE0400ADF80230019B1B889A1DBDF802309A42AE
:10AE140001D90C234BE00398FFF7B1FF0590059B84
:10AE24000493049B002B01D0049B40E0019B1B88EE
:10AE34001A46029B134405221A70019B1B88013396
:10AE44009AB2019B1A80019B1B881A46029B1344E9
:10AE540012221A70019B1B8801339AB2019B1A803B
:10AE6400039B1A88019B1B881946029B0B441946B5
:10AE74001046FFF7AFFC03461A46019B1B88134498
:10AE84009AB2019B1A80039B5A88019B1B8819461E
:10AE9400029B0B4419461046FFF79CFC03461A46D6
:10AEA400019B1B8813449AB2019B1A800023184605
:10AEB40007B05DF804FB00B587B0039002910192DE
:10AEC400ADF80230039B9B8802330593019B1B88DA
:10AED4001A46059B13449A1CBDF802309A4201D9C4
:10AEE4000C2353E0059BFE2B01D90C234EE0059B5C
:10AEF400DAB2019B1B881946029B0B440132D2B281
:10AF04001A70019B1B8801339AB2019B1A80019B22
:10AF14001B881A46029B1344FF221A70019B1B884C
:10AF240001339AB2019B1A80039B1A88019B1B88E8
:10AF34001946029B0B4419461046FFF74BFC034687
:10AF44001A46019B1B8813449AB2019B1A80039BE7
:10AF54009B88002B19D0039B9B68002B01D10723EE
:10AF640014E0019B1B881A46029B9818039B99685E
:10AF7400039B9B881A4614F0F3FD019B1A88039BDC
:10AF84009B8813449AB2019B1A800023184607B089
:10AF94005DF804FB00B589B0039002910192ADF80D
:10AFA4000230039B9B6A002B01D1072371E000232D
:10AFB4008DF81F3065E0039B996A9DF81F201346A6
:10AFC4005B0013449B000B440693069B9B8802334F
:10AFD4000593059BFE2B01D90C235AE0059BDAB29D
:10AFE400019B1B881946029B0B440132D2B21A7092
:10AFF400019B1B8801339AB2019B1A80019B1B8819
:10B004001A46029B134416221A70019B1B880133B3
:10B014009AB2019B1A80069B1A88019B1B881946C9
:10B02400029B0B4419461046FFF7D4FB03461A460D
:10B03400019B1B8813449AB2019B1A80069B9B8830
:10B04400002B19D0069B9B68002B01D1072320E01D
:10B05400019B1B881A46029B9818069B9968069BBD
:10B064009B881A4614F07CFD019B1A88069B9B88DA
:10B0740013449AB2019B1A809DF81F3001338DF856
:10B084001F30039B93F82C309DF81F209A4292D3D3
:10B094000023184609B05DF804FB00B595B005908F
:10B0A4000491039200231393039B1B88ADF84A3049
:10B0B400039B00221A80059B93F82D30002B0ED0A1
:10B0C400BDF84A301A4603990498FFF799FB139088
:10B0D400139B1193119B002B01D0119BD8E0059B6E
:10B0E4009B78002B0ED0BDF84A301A460399049879
:10B0F400FFF796FC1390139B1093109B002B01D029
:10B10400109BC5E0059BDB78002B10D0059BDB78FA
:10B1140058B2BDF84A30039A0499FFF7D0FC139053
:10B12400139B0F930F9B002B01D00F9BB0E0059B4B
:10B134005B68002B11D0059B5B6893F90000BDF898
:10B144004A30039A0499FFF7F9FC1390139B0E936A
:10B154000E9B002B01D00E9B9AE0059B1B89002BB4
:10B1640014D0059B03F10800BDF84A300193039BFA
:10B174000093049B06220221FFF7CAFD1390139B40
:10B184000D930D9B002B01D00D9B81E0059B1B8A29
:10B19400002B14D0059B03F11000BDF84A30019335
:10B1A400039B0093049B07220321FFF7B1FD139037
:10B1B400139B0C930C9B002B01D00C9B68E0059B0C
:10B1C4001B8B002B14D0059B03F11800BDF84A30EB
:10B1D4000193039B0093049B15221421FFF798FD10
:10B1E4001390139B0B930B9B002B01D00B9B4FE0F5
:10B1F400059B1B6A002B0FD0059B186ABDF84A30CB
:10B20400039A0499FFF7F7FD1390139B0A930A9B83
:10B21400002B01D00A9B3BE0059B5B6A002B0FD0FF
:10B22400059B586ABDF84A30039A0499FFF743FE18
:10B234001390139B0993099B002B01D0099B27E0D2
:10B24400059B93F82C30002B0ED0BDF84A30039A9E
:10B2540004990598FFF79EFE1390139B0893089B8F
:10B26400002B01D0089B13E0059B1B78002B0ED00C
:10B27400BDF84A30039A04990598FFF72AFB139006
:10B28400139B0793079B002B01D0079B00E0139BA4
:10B29400184615B05DF804FB86B0039001921A4677
:10B2A4000B46ADF80A3013468DF80930039B002B8A
:10B2B40002D0019B002B01D100235BE00023ADF8F9
:10B2C40016300CE0BDF81630039A13441B781A4666
:10B2D400BDF8163013449BB20133ADF81630BDF8F7
:10B2E40016305A1CBDF80A309A420FDA019B1B88AB
:10B2F400BDF816209A42E5D3BDF816300133039AFF
:10B3040013441B789DF809209A42DBD1BDF816201E
:10B31400BDF80A309A4201D300232BE0BDF8163061
:10B324000233ADF81430BDF81630039A13441B7879
:10B33400002B07D0BDF81630039A13441B78013B49
:10B344009BB200E00023ADF81230BDF81230002BA0
:10B3540008D0BDF81420BDF812301A44BDF80A30E4
:10B364009A4201DD002305E0019BBDF814201A80F8
:10B37400BDF81230184606B0704700B585B001908C
:10B384000B46ADF8023013468DF801300023ADF8BA
:10B394000C309DF8013003AABDF802100198FFF7A4
:10B3A4007BFF0346ADF80E30BDF80E30002B01D103
:10B3B400002304E0BDF80C301A46019B13441846E0
:10B3C40005B05DF804FB72DF704700BF184673DFF9
:10B3D400704700BF184682B00190019B93F8303447
:10B3E400184602B0704784B00190002303930AE02A
:10B3F400019A039B13441B78002B01D0012306E020
:10B40400039B01330393039B052BF1D900231846B7
:10B4140004B0704782B003468DF807309DF80730BA
:10B424005A1C074B83FB02135910D317C91A0B4636
:10B434009B000B44D11ACBB2184602B0704700BF30
:10B444006766666682B001900091009BDB7B012BEE
:10B4540004D1009B9A88019BA3F8242400BF02B066
:10B46400704700B585B001900091019B002283F8DC
:10B474002E24009B9A88019BB3F824349A4216D157
:10B48400019B1B7983F00103DBB2002B0FD0012158
:10B49400019800F0ABFA0390039B002B07D0019BAB
:10B4A4009B6B002B03D0019B9B6B0398984700BFB9
:10B4B40005B05DF804FB00B585B001900091009BD8
:10B4C4001B88262B1ED1009B1B7A012B03D0009BCB
:10B4D4001B7A022B17D1019B9B781846FFF79AFF22
:10B4E40003461946019800F081FA0390039B002B50
:10B4F40009D0019B9B6B002B05D0019B9B6B039890
:10B50400984700E000BF05B05DF804FB00B585B0C6
:10B5140001900B468DF80330019B03F22743184634
:10B52400FFF761FF03468DF80F309DF80330013BB0
:10B53400032B33D801A252F823F000BF51B5020007
:10B5440075B5020089B5020095B50200019B9B798F
:10B55400002B0DD0019B93F8243083F00103DBB260
:10B56400002B05D09DF80F30002B01D0012316E0ED
:10B57400019BDB79002B05D09DF80F30002B01D007
:10B5840002230CE0019B1B7A002B01D0032306E06D
:10B59400019B5B7A002B01D0042300E000231846B2
:10B5A40005B05DF804FB00BF82B001900091019BDF
:10B5B400012283F83120019B0022C3F82024019B3F
:10B5C40003F22642009B5A60009B00229A60009B73
:10B5D40002221A70009B80229A810023184602B02E
:10B5E400704782B001900091019B022283F83120C0
:10B5F400019B93F82430002B03D0009B07221A7080
:10B6040002E0009B03221A70019B1B699AB2009B03
:10B614009A81019B0022C3F82024019B03F2264255
:10B62400009B5A60019BDA68009B9A6000231846CD
:10B6340002B0704700B583B00190019B5B79002B89
:10B644000FD0019B93F82E3483F00103DBB2002B5F
:10B6540007D00198FFF7BFFE0346002B01D001235A
:10B6640000E0002303F00103DBB2184603B05DF8E9
:10B6740004FB00B585B001900B468DF80330019BA7
:10B68400D3F81004019BB3F8143401221946FFF7D0
:10B6940074FE0390039B002B03D0039B9DF80320AF
:10B6A4001A70019B03F15400019B03F58261019B15
:10B6B4003C331A46FFF787FE0346184605B05DF88B
:10B6C40004FB00B585B001900091019B5A69009B71
:10B6D4009A60019B9B699AB2009B9A81019B93F8A3
:10B6E4002430002B04D0019B062283F83C2003E085
:10B6F400019B012283F83C200198FFF79BFF03463E
:10B70400002B13D0009B02221A7504210198FFF725
:10B71400B0FF0390039B0293029B002B01D0029B7A
:10B724000FE0019B052283F8312003E0019B0322F3
:10B7340083F83120019B03F58262019BC3F8202426
:10B744000023184605B05DF804FB00B585B00190F0
:10B754000091019BDA69009B9A60019B1B6A9AB273
:10B76400009B9A81019B93F82430002B04D0019B09
:10B77400062283F83C2003E0019B012283F83C204D
:10B784000198FFF757FF0346002B13D0009B0222BA
:10B794001A7504210198FFF76CFF0390039B029331
:10B7A400029B002B01D0029B0FE0019B062283F831
:10B7B400312003E0019B042283F83120019B03F52F
:10B7C4008262019BC3F820240023184605B05DF86B
:10B7D40004FB82B00190019B9B78002B06D0019B57
:10B7E40093F82030002B01D0002300E001231846F9
:10B7F40002B0704784B00190019B93F82430002B71
:10B8040003D0EE23ADF80E3002E01F23ADF80E3066
:10B81400BDF80E30184604B0704782B001900B4654
:10B824008DF80330019B9DF8032083F8302000BF7E
:10B8340002B0704730B587B001900091009B002B97
:10B8440002D0019B002B01D10E23B8E0009B78337A
:10B854001846FFF7BEFF034683F00103DBB2002B5B
:10B8640001D00723ABE0019B00229A70019A009B50
:10B87400141D03F178050FCD0FC40FCD0FC495E847
:10B88400070084E80700019B002283F83020009B16
:10B89400D3F8A420019B5A63009BD3F8A820019BF2
:10B8A4009A63019B4FF6FF72A3F82424019B03F5CE
:10B8B4008262019BC3F82024019B03F226430722E2
:10B8C4000021184614F07EF9019B1B7883F00103D4
:10B8D400DBB2002B03D0019BFF2283F85420019B91
:10B8E40003F15502019BC3F810240198FFF782FF6E
:10B8F40003461A46019BA3F814240098019B03F104
:10B904005501019B03F214431A46FFF7C6FB059049
:10B91400059B0493049B002B01D0049B4FE0019BE7
:10B9240003F23122019BC3F818240198FFF762FF48
:10B9340003461A46019BA3F81C24009B03F13C0018
:10B94400019BD3F81814019B03F21C431A46FFF71A
:10B95400A4FB0590059B0393039B002B01D0039B41
:10B964002DE0019B012283F85120019B9B699AB22F
:10B97400019BA3F84820019B012283F83C20019BF2
:10B9840000221A64019B002283F85020019B5A690B
:10B99400019B5A64019B03F15400019B3C331A46FA
:10B9A4000021FFF710FD0590059B0293029B002BDD
:10B9B40001D0029B03E0019B01221A70059B1846EB
:10B9C40007B030BD82B00190019B1B68012B07D0EA
:10B9D400019B1B68022B03D0019B1B68042B01D124
:10B9E400012300E00023184602B0704700B585B07B
:10B9F40001900B468DF80330019B1B7883F0010303
:10BA0400DBB2002B01D0082309E1019B9DF8032040
:10BA14009A70019B03F2264307220021184614F072
:10BA2400D1F8019B9B79002B03D0019B9B78012BC0
:10BA34000FD0019BDB79002B03D0019B9B78012B5A
:10BA440007D0019BDB79002B14D0019B9B78022B40
:10BA540010D1019B5B6B002B08D0019B012283F862
:10BA64002D24019B5B6B0820984703E0019B002277
:10BA740083F82D249DF8033019460198FFF746FDFD
:10BA840003461A46019B9A70019B5B6B002B20D0E6
:10BA9400019B9B78032B03D0019B9B78042B18D12B
:10BAA400019B5B79002B14D0019B93F82E3483F017
:10BAB4000103DBB2002B0CD0019B002283F830245D
:10BAC400019B012283F82F24019B5B6B072098477D
:10BAD40003E0019B002283F82F24019B3C331822AE
:10BAE4000021184614F06EF8019B012283F83C20D3
:10BAF400019B2C331846FFF765FF0346002B06D045
:10BB0400019BDB6ADAB2019B83F8512003E0019BBD
:10BB1400012283F85120019B93F82430002B12D08A
:10BB2400019B28331846FFF74DFF0346002B06D030
:10BB3400019B9B6ADAB2019B83F8522003E0019BCC
:10BB4400012283F85220019B002283F85020019B9C
:10BB54009B78042B31D801A252F823F0B5BB020024
:10BB640075BB020085BB020095BB0200A5BB0200A9
:10BB7400019B3C3319460198FFF716FD03901DE025
:10BB8400019B3C3319460198FFF72BFD039015E008
:10BB9400019B3C3319460198FFF793FD03900DE098
:10BBA400019B3C3319460198FFF7CFFD039005E054
:10BBB400019B002283F8312000E000BF019B9B78A9
:10BBC400002B20D0019B03F15400019BD3F82014D7
:10BBD400019B3C331A46FFF7F6FB0390039B002BB3
:10BBE40001D0039B1BE0019B93F85420019B93F825
:10BBF400303019461046FFF7EAFB0390039B002BF5
:10BC040001D0039B0BE0019B5B6B002B06D0019BD7
:10BC14005B6B019A92F8312010469847002318462E
:10BC240005B05DF804FB00BF00B585B0019000913C
:10BC3400009B0393019B1B88262B10D0262B13DC1F
:10BC4400102B02D0112B05D00EE001990398FFF7B9
:10BC5400F9FB0AE001990398FFF703FC05E0019959
:10BC64000398FFF728FC00E000BF00BF05B05DF8B3
:10BC740004FB75DF704700BF184676DF704700BFCE
:10BC840018467ADF704700BF18467BDF704700BF55
:10BC94001846000084B00346ADF806300023039331
:10BCA40016E00F49039A13469B0013449B000B4470
:10BCB4001B88BDF806209A4207D1039A13469B00BD
:10BCC40013449B00064A134406E0039B0133039389
:10BCD400039B002BE5D00023184604B0704700BF37
:10BCE4006029002082B001900B46ADF80230019B20
:10BCF400BDF802201A80019B00221A72019B05499B
:10BD040003F10A020B4603CB1060516000BF02B07E
:10BD1400704700BF9029002082B00190019B4FF62C
:10BD2400FF721A8000BF02B0704788B0039002917E
:10BD340011461A460B46ADF806301346ADF80430EA
:10BD4400039B9B881A46BDF8063013440793039B54
:10BD54009B881946039B9B88BDF80620934228BF05
:10BD640013469BB2CB1A0693039BDB881A46BDF895
:10BD7400043013440593039BDB881946039BDB883B
:10BD8400BDF80420934228BF13469BB2CB1A0493F8
:10BD9400029B5A88039B1B889A4205D3029B5A88AC
:10BDA400039B5B889A4201D900231CE0029B9B8879
:10BDB4001A46069B934205D8029B9B881A46079B0A
:10BDC400934201D200230EE0029BDB881A46049BB7
:10BDD400934205D8029BDB881A46059B934201D205
:10BDE400002300E00123184608B0704700B583B073
:10BDF4000190064B9B69002B03D0044B9B6901986F
:10BE0400984700BF03B05DF804FB00BF742900200D
:10BE140000B585B003460091ADF80630BDF8063094
:10BE240000991846FFF725FF0390039B002B05D0CC
:10BE3400039B112B02D00398FFF7D8FF039B002B21
:10BE44000CBF01230023DBB2184605B05DF804FBE8
:10BE540000B589B00190019B0793079B9BB21846DC
:10BE6400FFF718FF0690069B002B42D0069B1A7A18
:10BE7400224B1B7B9A4215D2079B9AB2069B0A332C
:10BE840019461046FFF7C4FF03468DF813309DF89A
:10BE94001330002B2DD0069B1B7A0133DAB2069B9C
:10BEA4001A7226E0069B00221A72144B1B7C002B8C
:10BEB4000FD0079B9BB23B211846FFF7DEFE05908F
:10BEC400059B002B05D0059B082B02D00598FFF796
:10BED4008DFF0A4B5B69002B0BD000238DF80C30CF
:10BEE400079B9BB2ADF80E30044B5B6903AA104666
:10BEF400984700BF09B05DF804FB00BF7429002017
:10BF040030B587B00190019B002B01D10E2353E083
:10BF14002B4A019B14461D460FCD0FC495E807001C
:10BF240084E80700264B274A1A60019B1B68002BF4
:10BF340011D0019B1B681846FFF7A3FE0490049BD5
:10BF4400002B01D0049B37E0019B1A681D4B10683D
:10BF5400516803C308E01B48FFF797FE0490049B55
:10BF6400002B01D0049B27E00023059320E0059AD1
:10BF740013469B0013449B00134A134403930398F2
:10BF8400FFF7CAFE059B5B01104A1A44039B5A60E3
:10BF9400039B04330E4A002118460DF035F8049033
:10BFA400049B002B01D0032306E0059B013305937A
:10BFB400059B002BDBD00023184607B030BD00BF23
:10BFC40074290020902900206029002040290020A5
:10BFD40055BE020000B587B003460091ADF80630A7
:10BFE400009B5B7A002B1AD1009B1B7A002B03D198
:10BFF400164B5B68059302E0144B9B680593009B0A
:10C004005B68BDF80620059918460DF037F80490D2
:10C01400049B002B16D00498FFF7E8FE12E0009B67
:10C0240000221A72094B5B69002B0BD001238DF897
:10C034000C30BDF80630ADF80E30044B5B6903AA32
:10C044001046984700BF07B05DF804FB7429002030
:10C0540000B585B00190019BDB7B8DF80F30019B0F
:10C064009B88ADF80C309DF80F30012B2CD14FF686
:10C07400FF70FFF70FFE0290029B002B03D10420F8
:10C08400FFF7B4FE21E0BDF80C3019460298FFF723
:10C0940029FE029B03F10A00019B03F110014FF6F4
:10C0A400FF7340F2F312FFF740FE03461A46029B69
:10C0B4005A72074BDB89002B07D1BDF80C3002996B
:10C0C4001846FFF787FF00E000BF05B05DF804FBEA
:10C0D4007429002000B587B00190019B9B88ADF8BE
:10C0E4001630BDF816301846FFF7D4FD0490049BB3
:10C0F400002B0ED0049B5B6818460DF017F80390D4
:10C10400039B002B02D00398FFF770FE0498FFF7FF
:10C1140003FE00BF07B05DF804FB000000B587B064
:10C124000190019B06330593059B1A88194BDB8903
:10C134009A422BD1059B5B89022B27D1019B9B88BB
:10C14400ADF81230BDF812301846FFF7A3FD039086
:10C15400039B002B1AD0059B0C33184600F0AEFB52
:10C164000346002B06D0BDF8123003991846FFF79A
:10C1740031FF0BE0039B5B6818460CF0D7FF02907D
:10C18400029B002B02D00298FFF730FE00BF07B0DD
:10C194005DF804FB7429002000B585B00190019B73
:10C1A4009B88ADF80E30BDF80E301846FFF772FDCF
:10C1B4000290029B002B15D0029B03F10A00019B05
:10C1C40003F108014FF6FF7340F2F312FFF7ADFDE0
:10C1D40003461A46029B5A72BDF80E30029918465D
:10C1E400FFF7F8FE00BF05B05DF804FB00B583B0AF
:10C1F40001900091019B1B88502B12D0502B18DC0E
:10C20400122B12D0122B14DC102B02D0112B04D0C1
:10C214000FE00198FFF71CFF0CE00198FFF75AFFAD
:10C2240008E00198FFF77AFF04E00198FFF7B4FFF4
:10C2340000E000BF00BF03B05DF804FB30B58FB071
:10C244000190009100230293009B002B1AD000233D
:10C254000D9314E06B460D9918460FF080FD0346CC
:10C26400002B09D0029B5A1C02920D9A92B25B00D9
:10C2740038336B4423F82C2C0D9B01330D930D9B09
:10C28400132BE7D9019B1D4602AC0FCC0FC50FCC75
:10C294000FC594E8070085E8070001980FB030BD8A
:10C2A40000B583B00346ADF80630BDF80630132B55
:10C2B40001D900230CE0BDF80630194606480FF0FA
:10C2C400F9FCBDF80630194604480FF0F3FC0123CD
:10C2D400184603B05DF804FBA02900209C29002027
:10C2E40000B585B00346ADF80630002303930DE096
:10C2F400039B9B00094A13440433BDF806201146EE
:10C3040018460FF013FD039B01330393039B1D2B6E
:10C31400EED900BF00BF05B05DF804FB98290020EA
:10C3240000B583B00346ADF80630BDF806301946B3
:10C3340003480FF0FBFC00BF03B05DF804FB00BF33
:10C34400A029002030B59BB0184B9B68DB431893A1
:10C35400164B5A6818AB114618460FF0D6FD189ABA
:10C364006B4611461846FFF769FF0DAC6D460FCDBD
:10C374000FC40FCD0FC495E8070084E8070000231D
:10C3840019930BE0199B5B0068336B4433F8303C22
:10C394001846FFF7A5FF199B013319930D9B199AB2
:10C3A4009A42EFD300BF00BF1BB030BD98290020D4
:10C3B40000B583B003468DF807309DF80730194661
:10C3C40003480FF0CCFC0346184603B05DF804FBA9
:10C3D4009829002000B583B001900B46ADF80230D7
:10C3E40013468DF801309DF80130002B06D0BDF8BE
:10C3F4000230194601980FF05DFC05E0BDF80230EB
:10C40400194601980FF092FC00BF03B05DF804FBDD
:10C4140000B585B001900091019B9B88ADF80E306A
:10C42400019B1B88103B0A2B00F2888001A252F862
:10C4340023F000BF65C40200A1C4020041C502008C
:10C4440041C5020041C5020041C5020041C50200C8
:10C4540041C5020041C502000BC50200ADC4020083
:10C46400FFF770FFBDF80E301846FFF719FF0346BB
:10C4740083F00103DBB2002B05D0324AF021042003
:10C484000CF0D4F957E0019BDB7B022B53D1BDF8B0
:10C494000E3019462C480FF00DFC4CE0BDF80E3060
:10C4A4001846FFF73DFF49E0019B1B7AC3F30313D2
:10C4B400DBB28DF80D309DF80D30032B8CBF0123BA
:10C4C4000023DAB2BDF80E3019462048FFF782FF88
:10C4D4009DF80D30022B8CBF01230023DAB2BDF886
:10C4E4000E3019461A48FFF775FF9DF80D30012BE1
:10C4F4008CBF01230023DAB2BDF80E30194615486B
:10C50400FFF768FF1AE0019B1B7A002B15D1019BF2
:10C514005B7AC3F3C003DBB2002B14BF01230023F7
:10C524008DF80C309DF80C20BDF80E3019460748E4
:10C53400FFF750FF01E000BF00E000BF00BF05B0FF
:10C544005DF804FB64020400A4290020B029002043
:10C55400AC290020A829002000B583B00346ADF81B
:10C564000630BDF80630132B01D9002306E0BDF8D0
:10C574000630194603480FF0F2FB0346184603B091
:10C584005DF804FB9C29002000B585B00346ADF896
:10C59400063000238DF80F30BDF806301846FFF73B
:10C5A400DBFF0346002B11D0BDF8063019460A48BC
:10C5B4000FF0D5FB03468DF80E309DF80E30002B9E
:10C5C40001D0022300E001238DF80F309DF80F30D5
:10C5D400184605B05DF804FBA429002000B585B019
:10C5E4000346ADF8063000238DF80F30BDF8063051
:10C5F4001846FFF7B1FF0346002B11D0BDF80630F3
:10C6040019460A480FF0ABFB03468DF80E309DF82F
:10C614000E30002B01D0022300E001238DF80F30EF
:10C624009DF80F30184605B05DF804FBA0290020E2
:10C6340000B583B00346ADF80630BDF806301846A1
:10C64400FFF78AFF0346002B07D0BDF806301946D2
:10C6540004480FF084FB034600E00023184603B0AF
:10C664005DF804FBA829002000B583B00346ADF8AB
:10C674000630BDF806301846FFF76EFF0346002B60
:10C6840007D0BDF80630194604480FF068FB03468E
:10C6940000E00023184603B05DF804FBAC29002039
:10C6A40000B583B00346ADF80630BDF80630184631
:10C6B400FFF752FF0346002B07D0BDF8063019469A
:10C6C40004480FF04CFB034600E00023184603B077
:10C6D4005DF804FBB029002000B583B00190054B40
:10C6E4005A68019B11461846FFF7A8FD019803B04C
:10C6F4005DF804FB9829002000B583B01821074891
:10C704000FF045FB0190019B182B01D1182301E088
:10C71400019BDBB2184603B05DF804FB98290020A6
:10C7240000B583B003460A46ADF8063013468DF8CB
:10C7340005309DF805301846FFF73AFE0346002BF6
:10C7440016D0BDF806301846FFF706FF0346002B47
:10C754000ED09DF8053006339B00084A1344043379
:10C76400BDF80620114618460FF0F9FA034600E01A
:10C774000023184603B05DF804FB00BF982900208D
:10C7840000B583B00346ADF806300B468DF805308E
:10C7940013468DF804309DF805301846FFF708FE5F
:10C7A4000346002B15D0BDF806301846FFF7D4FE1B
:10C7B4000346002B0DD09DF8053006339B00074A35
:10C7C400134404339DF80420BDF806101846FFF7FF
:10C7D40001FE00BF03B05DF804FB00BF98290020F0
:10C7E40000B587B0039002910192029B002B01D106
:10C7F40000231FE000230593039B002B19D0002383
:10C80400049313E003AB049918460FF0A8FA034607
:10C81400002B08D0049B9AB2029B019910469847BA
:10C82400059B01330593049B01330493049B132B51
:10C83400E8D9059B184607B05DF804FB00B585B040
:10C844000346029101928DF80F309DF80F3018467F
:10C85400FFF7AEFD034683F00103DBB2002B01D0EA
:10C8640000230CE09DF80F30074A06339B00134465
:10C874005B68019A02991846FFF7B2FF034618460F
:10C8840005B05DF804FB00BF9829002082B0019038
:10C89400019B1B781AB2019B01331B781B021BB24C
:10C8A40013431BB29BB2184602B07047AADF70470D
:10C8B40000BF1846ABDF704700BF184600B585B00F
:10C8C40001900198FFF7E2FF0346ADF80E30BDF882
:10C8D4000E3003F00103002B14BF01230023DBB24D
:10C8E400184605B05DF804FB00B585B001900091D1
:10C8F40000238DF80F309DF80F305A1C8DF80F204F
:10C904001A46019B1344009A12781A709DF80F304E
:10C914005A1C8DF80F201A46019B1344009A527832
:10C924001A709DF80F30022B0CBF01230023DBB2D9
:10C934000293029B002B04D1054A472100200BF0EF
:10C9440075FF9DF80F30184605B05DF804FB00BF75
:10C95400A802040082B0034600918DF80730009AC3
:10C9640013786FF303031370009A13786FF30713AC
:10C9740013709DF80730052B5BD801A252F823F001
:10C984009DC90200B3C90200CDC90200E7C9020073
:10C9940001CA02001BCA0200009A13786FF3030352
:10C9A4001370009A13786FF30713137040E0009A22
:10C9B4001378012161F303031370009A13780121A2
:10C9C40061F30713137033E0009A1378012161F3C4
:10C9D40003031370009A1378022161F30713137091
:10C9E40026E0009A1378012161F303031370009A7F
:10C9F4001378032161F30713137019E0009A137875
:10CA0400022161F303031370009A1378012161F387
:10CA1400071313700CE0009A1378022161F30303E7
:10CA24001370009A1378022161F30713137000BF87
:10CA340000BF00BF02B0704700B595B00346029135
:10CA44000192ADF80E30029B9B78002B03D1012399
:10CA54008DF81E3003E0029B9B788DF81E30029BFC
:10CA64001B88ADF81C3006AB03220021184613F0D6
:10CA7400A9F8029B5B7C06AA11461846FFF76AFFD9
:10CA8400029B9A7C06AB013319461046FFF762FFFE
:10CA9400029BDA7B9DF81A3062F3C3038DF81A30D7
:10CAA400029B1A7C9DF81A3062F304138DF81A3035
:10CAB400029B1A7B9DF81A3062F300038DF81A303A
:10CAC400029B1B7D002B01D0022200E001229DF875
